:1008EA0057656C636F6D6500436865636B696E6716
:1008FA0020666F720047534D206D6F64656D00412D
:10090A00542646004154453000415400535953542B
:10091A00454D00434F4E4E45435445440041542BE8
:10092A00435245473D30004348454B494E472053C3
:10093A00494D0041542B4350494E3F0053494D20E5
:10094A00434F4E4E45435445440041542B434E4D6C
:10095A00493D312C312C302C300041542B434D472A
:10096A00463D310041542B434D47443D31004154EB
:10097A002B434D47443D320041542B434D47443DA0
:10098A00330054454D503A0053656E646E67204DEE
:10099A006573736167652E2E2E2E004745542054C9
:1009AA00454D5043004745542054454D504600415B
:1009BA00542B434D47533D0054656D705F633A00B5
:1009CA00B0630054656D705F663A00B066004D45CD
:1009DA0053534147452053454E54004F4B00415411
:0909EA002B434D47523D31000042
:040F3E00410000006E
:10000300E4FDFCE4FBFAC3EB9FEA9E50070BBB0045
:0F001300010A80F20DBD00010CED64644C70E435
:0100220022BB
:0C0F3200758920758DFD759850D28E22B7
:060D03007BFF7A09796E06
:0B0D0900900051EBF0A3EAF0A3E9F02A
:100D1400E4A3F0900051E0FBA3E0FAA3E0F9A3E020
:100D2400F5827583001203F2FF6012120F167F140E
:0D0D34007E00120003900054E004F080D611
:010D4100228F
:100F050075990D3099FDC29975990A3099FDC29967
:010F150022B9
:0E0F16008F993099FDC2997F147E000200036E
:100E67007F02120DBE7F28120DBE7F28120DBE7F96
:0E0E77000E120DBE7F06120DBE7F01020DBED3
:090DB5007FF47E01120E217F0182
:100DBE00900051EFF054F0F5A0C2A0D2A17F037EB7
:100DCE0000120E21C2A1900051E0C454F0F5A0C251
:0D0DDE00A0D2A17F037E00120E21C2A1222F
:0E0D420090004FE08475F00A84E5F04430FF25
:100D5000900056EFF054F0F5A0D2A0D2A17F037E10
:100D600000120E21C2A1900056E0C454F0F5A0D2AA
:0D0D7000A0D2A17F037E00120E21C2A1229D
:0D0C7E007F0A7E00120E217BFF7A09798C1F
:0B0C8B00900051EBF0A3EAF0A3E9F0A9
:100C9600E4900055F0900054F0900051E0FBA3E082
:100CA600FAA3E0F9A3E0F5827583001203F2FF6070
:0C0CB6000B120D50900054E004F080DDA3
:010CC200220F
:070E1A00120F057F647E004A
:100E2100E4FDFCD3ED9FEC9E5015E4FBFA0BBB00F7
:0F0E3100010AEB64C94A70F50DBD00010C80E4A5
:010E4000228F
:100EEE00EF4E60127D7AEDD3940050031D80F7EF24
:060EFE001F70ED1E80EAEA
:010F040022CA
:100ED600E4FDFCC3ED9FEE6480F8EC648098500757
:070EE6000DBD00010C80ECC2
:010EED0022E2
:100E8500C2B57F1D7E00120ED6D2B57F03120ED6D7
:0B0E9500A2B592037F19120ED6A20333
:010EA000222F
:0D0F2400E4FFC2B5D2B50FEFB403FBA2B5D8
:010F3100229D
:100EBC00E4900051F0C2B5300303D38001C392B566
:090ECC007F057E00120ED6D2B59E
:010ED50022FA
:100DEB00E4FBFA120F24501374017E00A802088052
:100DFB0005C333CE33CED8F9FF8002EBFFEB4FFBAD
:0E0E0B007F067E00120ED60AEAB408D7AF03A7
:010E190022B6
:020EA100AB079D
:100EA300E4FAEB139203120EBCEBC313FB0AEAB48E
:090EB30008F07F057E00020ED656
:100C2600784F7C007D017BFF7A0979F27E007F0296
:100C36001203B3120E857FCC120EA17F44120EA1B1
:100C4600120DEBEFF460F97FF47E01120EEE120E38
:100C5600857FCC120EA17FBE120EA1E4F9120DEB18
:100C6600744F29F582E43400F583EFF009E9B409FD
:070C7600EC7B017A00794FCD
:010C7D002254
:100CC300EF75F06484FEEF75F06484AFF0EF75F0B8
:100CD3000A84FD900051F0EF75F00A84A9F0EE4408
:100CE30030FEED4430F0E94430F9AF06120F16E060
:100CF300FF120F16AF01120F167FF47E01020E21B1
:100D7D0090004FEFF07F0A7E00120E21E0FF7C0302
:100D8D007DE8120431EF4430FF120D5075F06412FE
:100D9D000D4275F00A120D4290004FE075F00A8475
:080DAD00E5F04430FF020D5097
:03002300020E4189
:100E4100C0E0C083C082C0D0309812900002E59902
:100E5100F0E0B42B069000007401F0C298D0D0D01D
:060E610082D083D0E032D4
:10063900E490004AF090004EF0D201D200C20212BA
:100649000E67120E67120F327BFF7A0879EA120CD5
:100659008B7FC0120DBE7FE87E03120DB97BFF7A36
:100669000879F2120C8B7FC0120DBE7BFF7A0879D4
:10067900FF120C8B7F2C7E01120E217BFF7A0979E8
:1006890009120D09120F057FF47E01120E217BFF5D
:100699007A09790E120D09120F057FF47E01120EE7
:1006A90021C2987BFF7A097913120D09120F057F70
:1006B900E87E03120E213098FDC298D2AFD2AC7FEA
:1006C90001120DBE7BFF7A097916120C8B7FC312BA
:1006D9000DBE7BFF7A09791D120C8B120E1D7BFF53
:1006E9007A097927120D09120F057FE87E03120E88
:1006F90021E4900000F07F01120DBE7BFF7A097999
:1007090031120C8B7BFF7A09793D120D09120F0505
:100719007FDC7E05120E21900000E060FA7FC01296
:100729000DBE7BFF7A097946120C8B7FF47E01128C
:100739000E217BFF7A097954120D09120F057FBC2E
:100749007E02120E217BFF7A097927120D09120FF9
:10075900057FBC7E02120E217BFF7A097964120D96
:1007690009120E1A120D03120E1A7BFF7A097978F3
:10077900120D09120E1A7BFF7A097982120D0912DC
:100789000E1AE4900000F07FF40E120E21C2AC1292
:100799000DB5C2ACE4900000F0D2AC900000E0606E
:1007A90003020872120C2690004BEBF0A3EAF0A3A7
:1007B900E9F090004BE0FBA3E0FAA3E02401F9E49F
:1007C9003AFA1203D9540712041F90004BE0FBA315
:1007D900E0FAA3E0F91203D9C4540F900044F0E9F8
:1007E9002401F9E43AFA1203D9C454F012041F900F
:1007F900004BE0FBA3E0FAA3E0F99000011203F239
:10080900FF900044E02FF0E0FCE412022E7B667AB0
:100819006679E6783F12011EE4FBFAF97842120084
:100829002D120262900041EEF0A3EFF07F80120DCD
:10083900BE120C7E900044E0FF120D7D7FDF120D89
:10084900507F63120D507FC0120DBE120C7E9000B6
:1008590041A3E0FF120D7D7FDF120D507F46120D7F
:10086900507F02120DBE0207A47FF47E01120E21F1
:10087900C2AC7F641E120E21120AEC7F01120DBE5A
:100889007B017A007905120C8B7F5A7E00120E21AA
:100899007FC0120DBE7B017A00792D120C8B120DCF
:1008A900B57BFF7A097992120C8B78057C007D0162
:1008B9007BFF7A0979A512061CEF700874061209E4
:1008C900F402079878057C007D017BFF7A0979AFEE
:1008D90012061CEF600302079874071209F4020755
:0108E9009876
:0709F40090004AF0FF7E00B5
:1009FB0090004FEEF0A3EFF07FE87E03120E217F05
:100A0B00C0120DBE7BFF7A0979B9120D097F221234
:100A1B000F167B017A00792D120D097F22120F160A
:100A2B00120F057FF47E01120E2190004FE070042F
:100A3B00A3E0640670247BFF7A0979C2120D097F4B
:100A4B00E87E03120E21900044E0FF120CC37BFFE3
:100A5B007A0979CA120D09120F0590004FE0700444
:100A6B00A3E0640770257BFF7A0979CD120D097F0E
:100A7B00E87E03120E21900041A3E0FF120CC37B12
:100A8B00FF7A0979D5120D09120E1A7FDC7E051239
:100A9B000E217F1A120F167FF47E01120E217F1A80
:100AAB00120F16D2AC7FD07E07120DB97BFF7A09DD
:100ABB0079D8120C8B7FDC7E05120E21120D0312DE
:100ACB000F05C2AC7FF47E01120E217F641E120E45
:100ADB0021C2987FC0120DBE7BFF7A0979E5020C0B
:010AEB008B7F
:100AEC00120E1DD2AC7F2C0E120E21C2AC30980708
:100AFC00C298120E1D80F67BFF7A0979E8120D0957
:100B0C00120F05E4FFFEFDFCEF640360513098FD0D
:100B1C0090004FE599F0E0FB642C6004EDB4011EED
:100B2C00ECC3940F5016EC9404400C74282CF582F2
:100B3C00E43400F583EBF07D010C8002E4FDEFB4AE
:100B4C000210AB060E74052BF582E43400F583E538
:100B5C0099F0C29890004FE0B40AAD0F80AA1E74B1
:100B6C00052EF582E43400F583E4F01E74052EF5B1
:100B7C0082E43400F583E4F0900037F0120D031298
:0D0B8C000F05C2987FE87E03120E21C2986B
:010B99002239
:100026000202CEE86480F8E933E83360110460F038
:10003600ED33EC337009E8FCE9FDEAFEEBFF220440
:1000460060DED3EB9FEA9EE99DE8C2E78CF0C2F73B
:1000560095F0400CE8CCF8E9CDF9EACEFAEBCFFB07
:1000660012029985D0F05804700320D5B3E80470C5
:10007600075002B2D50202D892D5EC0460F7E4CC60
:10008600C0E0C398F8603B94186008400DD0E0FBD0
:100096000202B0E4FBFAC9FC8028E830E406E4C9B1
:1000A600FBE4CAFCE830E305E4C9CACBFCE8540724
:1000B6006010F8C3E913F9EA13FAEB13FBEC13FC2F
:1000C600D8F130F52FC3E49CFCEF9BFFEE9AFEEDD2
:1000D60099FDD0E0FBEF4E4D4C701222DB0302027D
:1000E600D5EC2CFCEF33FFEE33FEED33FDED30E7C0
:1000F600EB0202B0EF2BFFEE3AFEED39FDD0E0FB4E
:1001060050130BBB00030202D8ED13FDEE13FEEFF6
:0801160013FFEC13FC0202B020
:10011E00EC4D6011E8497017ED33EC3304600DE4DB
:10012E00FCFFFEFD22E933E8330470F80202CE1222
:10013E00029958046009E4CC248150062850090223
:10014E0002D82840030202D5C0E0EB4A7044B980C1
:10015E0006D0E0FB0202C4EF4E701CBD8008EBFF20
:10016E00EAFEE9FD80EBE98DF0A4FEE5F002020760
:10017E00E9CDF9EAFEEBFFEF89F0A4FCE5F0CE89BC
:10018E00F0A42EFFE435F0CD89F0A42DFEE435F079
:10019E008067EF4E7005BD80D780C3EF8BF0A4ACA7
:1001AE00F0EE8BF0A42CFCE435F0F8EF8AF0A42CE2
:1001BE00E5F038FCE433CB8DF0A42CFCE5F03BF8F5
:1001CE00EE8AF0A42CFCE5F038F8E433CF89F0A4E5
:1001DE002CFCE5F038CF3400CE89F0A42FFFE5F0EB
:1001EE003EFEE433C98DF0A42EFEE5F039CD8AF043
:1001FE00A42FFFE5F03EFEE43DFD33D0E0FB5007BB
:10020E000BBB000F0202D8EC2CFCEF33FFEE33FEDB
:06021E00ED33FD0202B009
:1002240075F020800E75F010800575F0087D007E55
:10023400007F003392D530D503120486EC3340108E
:10024400EF33FFEE33FEED33FDEC33FCD5F0ED225E
:0E025400E5F0247EA2D513CC92E7CDCEFF229A
:10026200EDD2E7CD33EC3392D524814006E4FFFE94
:10027200FDFC22FCE4CFCECDCC24E0501174FF80F3
:10028200EDC3CC13CCCD13CDCE13CECF13CF047090
:07029200F030D5DE02048606
:10029900E9D2E7C933E833F892D5EDD2E7CD33ECAB
:0702A90033FC5002B2D52224
:1002B000EC30E7100FBF000C0EBE00080DBD0004AF
:1002C0000BEB6014A2D5EB13FCED92E7FD2274FF5B
:1002D000FCFDFEFF22E480F8A2D574FF13FC7D80B4
:0302E000E480EFC8
:03000000020B9A56
:0C0B9A00787FE4F6D8FD758120020BE1A5
:1002E300E709F608DFFA8046E709F208DFFA803EFD
:1002F30088828C83E709F0A3DFFA8032E309F608EA
:10030300DFFA8078E309F208DFFA807088828C8351
:10031300E309F0A3DFFA806489828A83E0A3F60805
:10032300DFFA805889828A83E0A3F208DFFA804CDF
:1003330080D280FA80C680D4806980F280338010B6
:1003430080A680EA809A80A880DA80E280CA80331F
:1003530089828A83ECFAE493A3C8C582C8CCC58397
:10036300CCF0A3C8C582C8CCC583CCDFE9DEE78067
:100373000D89828A83E493A3F608DFF9ECFAA9F0E6
:10038300EDFB2289828A83ECFAE0A3C8C582C8CC3C
:10039300C583CCF0A3C8C582C8CCC583CCDFEADE55
:1003A300E880DB89828A83E493A3F208DFF980CCB7
:1003B30088F0EF60010E4E60C388F0ED2402B404B0
:1003C3000050B9F582EB2402B4040050AF23234557
:0603D30082239003337346
:1003D900BB010689828A83E0225002E722BBFE0222
:0903E900E32289828A83E4932255
:1003F200BB010CE58229F582E5833AF583E02250C0
:1004020006E92582F8E622BBFE06E92582F8E22209
:0D041200E58229F582E5833AF583E4932223
:10041F00BB010689828A83F0225002F722BBFE01BC
:02042F00F322B6
:10043100BC000BBE0029EF8DF084FFADF022E4CCAF
:10044100F875F008EF2FFFEE33FEEC33FCEE9DEC78
:10045100984005FCEE9DFE0FD5F0E9E4CEFD22EDBE
:10046100F8F5F0EE8420D21CFEADF075F008EF2F08
:10047100FFED33FD4007985006D5F0F222C398FDF9
:050481000FD5F0EA2296
:0E048600C3E49FFFE49EFEE49DFDE49CFC2287
:10049400E3F5F009E208B5F06D606B80F3E3F5F085
:1004A40009E608B5F060605E80F387F009E608B5F8
:1004B400F054605280F487F009E208B5F0486046D1
:1004C40080F488828C8387F009E0A3B5F038603625
:1004D40080F488828C8387F009E493A3B5F02760C5
:1004E4002580F388828C83E3F5F009E0A3B5F01648
:1004F400601480F388828C83E3F5F009E493A3B558
:10050400F004600280F20205BF808580E7808E805F
:10051400D2803C8015806C807E809B80B5808B80EF
:10052400A1804F8070803A0205D589828A83ECFAD3
:10053400E493F5F0A3C8C582C8CCC583CCE493A3E7
:10054400C8C582C8CCC583CCB5F070606E80E18923
:10055400828A83E493F5F0A3E208B5F05E605C80E0
:10056400F289828A83E0F5F0A3E608B5F04D604B8A
:1005740080F389828A83E0F5F0A3E208B5F03C6059
:100584003A80F389828A83E493F5F0A3E608B5F010
:100594002A602880F2805D89828A83ECFAE493F5EC
:1005A400F0A3C8C582C8CCC583CCE0A3C8C582C8A3
:1005B400CCC583CCB5F004600280E27F00F845F03E
:1005C400600EE863F0806480D395F01F40027F01E1
:1005D4002289828A83ECFAE0F5F0A3C8C582C8CCEC
:1005E400C583CCE0A3C8C582C8CCC583CCB5F0CB49
:1005F40060C980E389828A83ECFAE0F5F0A3C8C578
:1006040082C8CCC583CCE493A3C8C582C8CCC583B7
:10061400CCB5F0A760A580E288F0ED2402B4040014
:100624005099F582EB2402B40400508F23234582B1
:050634002390050D7389
:100BA600020639E493A3F8E493A34003F68001F226
:100BB60008DFF48029E493A3F85407240CC8C33350
:100BC600C4540F4420C8834004F456800146F6DF1F
:100BD600E4800B0102040810204080900F3EE47E62
:100BE600019360BCA3FF543F30E509541FFEE49314
:100BF600A360010ECF54C025E060A840B8E493A3DB
:100C0600FAE493A3F8E493A3C8C582C8CAC583CA05
:100C1600F0A3C8C582C8CAC583CADFE9DEE780BEBD
:010F420000AE
:00000001FF
